:020000040800F2
:10000000F007002029020008610800085F060008C8
:100010005D080008D1020008031900080000000074
:100020000000000000000000000000001D0A0008A1
:100030007105000800000000F1080008A91600087A
:10004000430200084302000843020008430200087C
:10005000430200084302000843020008430200086C
:10006000430200084302000843020008430200085C
:10007000430200084302000843020008430200084C
:10008000430200084302000843020008430200083C
:10009000430200084302000843020008430200082C
:1000A000430200084302000843020008430200081C
:1000B000430200084302000843020008430200080C
:1000C00043020008430200084302000843020008FC
:1000D0004302000815170008430200084302000805
:1000E00043020008430200084302000843020008DC
:1000F00043020008430200084302000843020008CC
:1001000043020008430200084302000843020008BB
:1001100043020008430200084302000843020008AB
:10012000430200084302000843020008430200089B
:10013000430200084302000843020008430200088B
:10014000430200084302000843020008430200087B
:10015000430200084302000843020008430200086B
:10016000430200084302000843020008430200085B
:10017000430200084302000843020008430200084B
:10018000430200084302000800F002F800F03CF8C7
:100190000AA090E8000C82448344AAF10107DA45E2
:1001A00001D100F031F8AFF2090EBAE80F0013F0F8
:1001B000010F18BFFB1A43F0010318479019000004
:1001C000B0190000103A24BF78C878C1FAD8520795
:1001D00024BF30C830C144BF04680C6070470000C1
:1001E0000023002400250026103A28BF78C1FBD840
:1001F000520728BF30C148BF0B6070471FB501F0E0
:100200009FFC1FBD10B510BD00F033F81146FFF77D
:10021000F5FF01F0DBFB00F051F803B4FFF7F2FF4C
:1002200003BC01F070FB0000094880470948004703
:10023000FEE7FEE7FEE7FEE7FEE7FEE7FEE7FEE796
:10024000FEE7FEE704480549054A064B70470000F3
:10025000AD16000889010008F0010020F007002019
:10026000F0030020F003002070477047704770478C
:100270007047754600F028F8AE46050069465346BB
:1002800020F00700854618B020B5FFF7DBFFBDE87A
:1002900020404FF000064FF000074FF000084FF0ED
:1002A000000B21F00701AC46ACE8C009ACE8C0097E
:1002B000ACE8C009ACE8C0098D4670470446AFF30E
:1002C00000802046FFF7A9FF004870478C010020FE
:1002D00000BFFEE7F0B502460B46002016E04FF4E3
:1002E000004132F8024B00BF00F400454FF6FF76A4
:1002F00006EA400004EA01060EB1461CB0B215B190
:1003000041F22106704049100029EDD11E00A3F1F1
:100310000107BBB2E3D1F0BD0246094B9A4201D2BC
:10032000084801E00648103801F000531BB1064BA5
:100330000B40C36002E0044B0B4083607047000039
:1003400010640240006002407D0F7D0F21B1026801
:1003500042F00102026003E0026822F00102026042
:1003600070470000016821F0010101600021016077
:1003700041608160C1600161212141614A49884237
:1003800004D13D21484A103A91608CE04649183129
:10039000884205D14FF47461434A103A916082E07B
:1003A00041493031884205D14FF474113E4A103A28
:1003B000916078E03C494831884205D14FF0746142
:1003C000394A103A91606EE037496031884204D171
:1003D0003649354A103AD16065E033497831884270
:1003E00004D13349304A103AD1605CE02E49903153
:1003F000884204D12F492C4A103AD16053E02A494F
:10040000A831884205D14FF03D51274A103AD160BA
:1004100049E02949884204D13D21274A083A116020
:1004200041E025491831884205D14FF47461224AD0
:10043000083A116037E020493031884205D14FF445
:1004400074111D4A083A11602DE01B494831884259
:1004500005D14FF07461184A083A116023E016493B
:100460006031884204D11149134A121F11601AE009
:1004700011497831884204D10D490F4A121F116089
:1004800011E00D499031884204D10A490A4A121FED
:10049000116008E00849A831884204D14FF03D516D
:1004A000054A121F11607047106002403D00002095
:1004B000400F002000003D20106402400146002053
:1004C0000A6802F001020AB1012000E00020704732
:1004D00030B503460A46002000240B4DAB4201D242
:1004E0000A4901E00849103902F000550DB14C6885
:1004F00000E00C68064D2C4004EA02050DB1012015
:1005000000E0002030BD00001064024000600240A6
:100510007D0F7D0F10B500220268134B1A40CC6886
:100520000B6823434C6923438C692343CC692343E1
:100530000C6A23434C6A23438C6A23434C6B23434A
:100540008C6B23431A430260426922F00702D1E90F
:100550000B3423431A4342610B6943604B68836049
:100560008B68C36010BD00003F801CF04160704785
:100570007047F0B50A4600210023002400BF3DE08B
:10058000012505FA01F3156805EA03049C4234D1FC
:1005900005684F000326BE40B543056015794E003F
:1005A000B5400668354305601579012D02D01579EF
:1005B000022D16D185684F000326BE40B5438560E5
:1005C00055794E00B54086683543856045680126FB
:1005D0008E40B5434560456896798E40B6B2354346
:1005E0004560C5684F000326BE40B543C560D57958
:1005F0004E00B540C6683543C560491C1029BFD3BD
:10060000F0BDF0B5002300244D07ED0E02FA05F30E
:10061000CE1000F1200555F826504E07F70E0F2694
:10062000BE40B543CF1000F1200646F82750CE104B
:1006300000F1200555F8265045EA0304CE1000F1DC
:10064000200545F82640F0BD0246002013690B4006
:100650000BB1012000E0002070470183704700BF0C
:10066000FEE700001CB50121112000F043F91C2019
:10067000009000208DF8040003208DF80500012073
:100680008DF8070069460648FFF773FF01200090C8
:1006900002208DF8070069460248FFF76AFF1CBD7B
:1006A000001002400000024010B5044614B10120C1
:1006B0002C4908702B480078002837D010212A4890
:1006C000FFF7C2FF78B108212748FFF7BDFF50B1FF
:1006D00004212548FFF7B8FF28B101212348FFF77F
:1006E000B3FF012822D10A2001F02EF900201D4974
:1006F000087010211C48FFF7A7FF08B9012010BDA2
:1007000008211948FFF7A0FF08B90220F7E70421E4
:100710001548FFF799FF08B90320F0E701211348B6
:10072000FFF792FF01281BD10420E8E710210E48B3
:10073000FFF78AFF012813D108210B48FFF784FF38
:1007400001280DD104210848FFF77EFF012807D1B9
:1007500001210648FFF778FF10B901200149087010
:100760000020CCE702000020001002400000024000
:100770001CB50121202000F0BDF84FF4C0600090AE
:1007800001208DF8040000208DF8060003208DF86C
:10079000050001208DF8070069460448FFF7E9FECF
:1007A0004FF4C0610148FFF758FF1CBD0014024020
:1007B0002DE9F04190B004460D4617461E46DDF87F
:1007C00058801A48844204D90121880500F092F823
:1007D00003E00121480500F08DF82046FFF7C2FD37
:1007E00000BF2046FFF76AFE0028FAD10195029764
:1007F00003960490CDF8148006904FF48060079023
:100800000020089009900A904FF480300B9000204F
:100810000C9003200D9000200E900F9001A920460F
:10082000FFF778FE10B0BDE8F081000000640240E0
:1008300070B504460D4600212046FFF787FD00BF36
:100840002046FFF73BFE0028FAD129462046FFF755
:100850008DFE01212046FFF779FD70BD00BFFEE748
:100860007047000070B5002100230F22C4781CB32C
:10087000174C246804F4E064C4F5E064C4F3072171
:10088000C1F10404E3B20A4144789C40E1B28478A7
:10089000144021430C07210E0E4C05786155047855
:1008A00004F01F050124AC4005786D11AD0005F181
:1008B000E025C5F8004109E0047804F01F05012493
:1008C000AC40054D0678761145F8264070BD000015
:1008D0000CED00E000E400E080E100E002490143AB
:1008E000024A1160704700000000FA050CED00E0BC
:1008F0007047000029B1064A12680243044B1A608F
:1009000004E0034A12688243014B1A6070470000FA
:100910003038024029B1064A12680243044B1A607B
:1009200004E0034A12688243014B1A6070470000DA
:1009300044380240F0B500210022002402250026A0
:100940000223324F3F6807F00C0121B1042905D082
:10095000082937D105E02E4F076036E02D4F07609C
:1009600033E02A4F3F1F3F68C7F38056274F3F1F92
:100970003F6807F03F036EB1264FB7FBF3F7DFF890
:100980008CC0ACF1040CDCF800C0CCF3881C07FB75
:100990000CF40CE01E4FB7FBF3F7DFF870C0ACF1BE
:1009A000040CDCF800C0CCF3881C07FB0CF4174FD8
:1009B0003F1F3F68C7F301477F1C7D00B4FBF5F77D
:1009C000076002E0124F076000BF00BF0F4F3F6893
:1009D00007F0F0010909104F7A5C0768D7404760BB
:1009E0000A4F3F6807F4E051890A0B4F7A5C476869
:1009F000D7408760054F3F6807F46041490B064FB9
:100A00007A5C4768D740C760F0BD000008380240F4
:100A10000024F40000127A000E000020704700004D
:100A20000CB50020019000903448006840F48030FC
:100A30003249086000BF3148006800F4003000907F
:100A40000198401C0190009818B90198B0F5A04F8A
:100A5000F1D12A48006800F4003010B10120009064
:100A600001E0002000900098012846D12348403042
:100A7000006840F0805021494031086020480068FB
:100A800040F440401E4908601C48083000681B497B
:100A9000083108600846006840F4004008600846D5
:100AA000006840F4A05008601648091F0860081F3D
:100AB000006840F08070091F086000BF0F480068A0
:100AC00000F000700028F9D040F205700E4908606F
:100AD0000A480830006820F003000849083108601F
:100AE0000846006840F00200086000BF0348083074
:100AF000006800F00C000828F8D10CBD0038024056
:100B00000070004008544007003C02407FB5054695
:100B10000024002000900190029003902E124FF6C6
:100B2000FF7000EA0525A81985B201224021FE4880
:100B300000F040FE0A21FD48FFF77AFE41F2031063
:100B4000ADF8000046F24000ADF80200ADF80450E8
:100B50008020ADF806000020ADF80800ADF80A00CE
:100B600044F64F70ADF80C0006216846FFF7B2FB63
:100B7000ADF80A00BDF800000012ED490870BDF89C
:100B800000004870BDF802008870BDF80200001235
:100B9000C870BDF804000871BDF804000012487167
:100BA000BDF806008871BDF806000012C871BDF8D6
:100BB00008000872BDF8080000124872BDF80A006B
:100BC0008872BDF80A000012C872BDF80C000873E4
:100BD000BDF80C0000124873D64800210160416046
:100BE000018101224021D04800F0E4FD0A21CF48D4
:100BF000FFF71EFE00BF09E0CD48015DCA4800F0C6
:100C00007CFE012000F0A0FE601C84B20E2CF3DB01
:100C10000A2000F099FE0BE04FF08151C348FFF726
:100C200057FC28B14FF08151C048FFF775FB00E039
:100C3000F2E700BFBF4800784F2822D1BD48407876
:100C40004F281ED1BB488078D8B9BA48C07801284F
:100C500017D1B8480079A0B9B648407988B9B548E5
:100C6000807970B9B348C07958B9B248007A512830
:100C700007D1B048407AAA2803D10120AE490870B4
:100C800002E06520AC49087001224021A64800F02E
:100C900091FD0A21A548FFF7CBFD41F20310ADF805
:100CA000000046F26000ADF80200ADF804500320E9
:100CB000ADF806000020ADF80800ADF80A0044F6D3
:100CC0004F70ADF80C0006216846FFF703FBADF846
:100CD0000A00BDF80000001298490870BDF8000035
:100CE0004870BDF802008870BDF802000012C8709C
:100CF000BDF804000871BDF8040000124871BDF889
:100D000006008871BDF806000012C871BDF8080021
:100D10000872BDF8080000124872BDF80A00887217
:100D2000BDF80A000012C872BDF80C000873BDF8C7
:100D30000C0000124873012240217B4800F03AFD6C
:100D40000A217A48FFF774FD002409E07B48015D21
:100D5000754800F0D2FD012000F0F6FD601C84B261
:100D60000E2CF3DB0A2000F0EFFD0BE04FF0815179
:100D70006E48FFF7ADFB28B14FF081516B48FFF78C
:100D8000CBFA00E0F2E700BF6A4800784F2822D192
:100D9000684840784F281ED166488078D8B96548A1
:100DA000C078012817D163480079A0B9614840791B
:100DB00088B96048807970B95E48C07958B95D4893
:100DC000007A512807D15B48407AAA2803D1022033
:100DD0005949087002E065205749087001224021F6
:100DE000514800F0E7FC0A215048FFF721FD41F28D
:100DF0000310ADF8000046F28600ADF80200ADF831
:100E000004500020ADF80600ADF80800ADF80A0067
:100E100044F64F70ADF80C0006216846FFF75AFA09
:100E2000ADF80A00BDF80000001245490870BDF891
:100E300000004870BDF802008870BDF80200001282
:100E4000C870BDF804000871BDF8040000124871B4
:100E5000BDF806008871BDF806000012C871BDF823
:100E600008000872BDF8080000124872BDF80A00B8
:100E70008872BDF80A000012C872BDF80C00087331
:100E8000BDF80C00001248732A480021016041603F
:100E9000018101224021244800F08CFC0A212348D2
:100EA000FFF7C6FC002409E02548015D1E4800F05C
:100EB00024FD012000F048FD601C84B20E2CF3DB01
:100EC0000A2000F041FD0BE04FF081511748FFF779
:100ED000FFFA28B14FF081511448FFF71DFA00E0E6
:100EE000F2E700BF134800784F2831D1114840780D
:100EF0004F282DD10F48807850BB0E48C07801286C
:100F000026D10C48007918BB0A48407900BB094833
:100F10008079E8B90748C079D0B90648007A5128E5
:100F200016D10448407A0DE00010014040640240B0
:100F3000740000209000002000000020200000200D
:100F40002E000020AA2803D10320B549087002E032
:100F50006620B349087001224021B24800F02AFC03
:100F60000A21B148FFF764FC41F20310ADF800001C
:100F700046F24000ADF80200ADF804500620ADF88E
:100F800006000020ADF80800ADF80A0044F64F70E6
:100F9000ADF80C0006216846FFF79CF9ADF80A0091
:100FA000BDF800000012A1490870BDF800004870AB
:100FB000BDF802008870BDF802000012C870BDF8CC
:100FC00004000871BDF8040000124871BDF8060065
:100FD0008871BDF806000012C871BDF808000872DB
:100FE000BDF8080000124872BDF80A008872BDF80A
:100FF0000A000012C872BDF80C000873BDF80C009E
:10100000001248738A480021016041600181012279
:101010004021844800F0CEFB0A218348FFF708FCFA
:10102000002409E08148015D7E4800F066FC012053
:1010300000F08AFC601C84B20E2CF3DB0A2000F066
:1010400083FC0BE04FF081517748FFF741FA28B15C
:101050004FF081517448FFF75FF900E0F2E700BFFD
:10106000734800784F2822D1714840784F281ED10C
:101070006F488078D8B96E48C078012817D16C487D
:101080000079A0B96A48407988B96948807970B90F
:101090006748C07958B96648007A512807D1644832
:1010A000407AAA2803D104205D49087002E0672035
:1010B0005B490870012240215A4800F07BFB0A215D
:1010C0005948FFF7B5FB41F20310ADF8000046F2B6
:1010D0004000ADF80200ADF804500F20ADF8060056
:1010E0000020ADF80800ADF80A0044F64F70ADF8E6
:1010F0000C0006216846FFF7EDF8ADF80A00BDF8D0
:10110000000000124B490870BDF800004870BDF89F
:1011100002008870BDF802000012C870BDF804001B
:101120000871BDF8040000124871BDF8060088710E
:10113000BDF806000012C871BDF808000872BDF8BD
:10114000080000124872BDF80A008872BDF80A0053
:101150000012C872BDF80C000873BDF80C00001234
:101160004873334800210160416001810122402120
:101170002C4800F01FFB0A212B48FFF759FB0024E5
:1011800009E02C48015D274800F0B7FB012000F082
:10119000DBFB601C84B20E2CF3DB0A2000F0D4FBD6
:1011A0000BE04FF081512048FFF792F928B14FF042
:1011B00081511D48FFF7B0F800E0F2E700BF1C487E
:1011C00000784F2821D11A4840784F281DD118485F
:1011D0008078D0B91648C078012816D11448007913
:1011E00098B91348407980B91148807968B9104896
:1011F000C07950B90E48007A512806D10C48407A7F
:10120000AA2802D10420064908700122402105487D
:1012100000F0D0FA0A210448FFF70AFB7FBD000066
:101220000000002000100140406402403C0000200B
:10123000900000204A0000202DE9FF4104460020D4
:1012400000900190029003904FF47A7726124FF6A7
:10125000FF7000EA0424A01984B241F20310ADF833
:10126000000046F2FF00ADF80200ADF80440BA48B5
:10127000007804281CD1B4F5007F02D0B4F5806F4B
:1012800007D14FF4C870ADF806000020ADF8080093
:101290002EE0B4F5807F02D0B4F5407F28D14FF620
:1012A0006F60ADF806004FF6FF70ADF808001FE064
:1012B000A948007802281BD1B4F5807F02D0B4F58C
:1012C000407F07D14FF4C870ADF806000020ADF89C
:1012D00008000DE0B4F5007F02D0B4F5806F07D1AF
:1012E0004FF66F60ADF806004FF6FF70ADF80800DE
:1012F00044F64F70ADF80C0006216846FEF7EAFF91
:10130000ADF80A00BDF80000001294490870BDF85D
:1013100000004870BDF802008870BDF8020000129D
:10132000C870BDF804000871BDF8040000124871CF
:10133000BDF806008871BDF806000012C871BDF83E
:1013400008000872BDF8080000124872BDF80A00D3
:101350008872BDF80A000012C872BDF80C0008734C
:10136000BDF80C00001248737D4800210160416007
:101370000181012240217B4800F01CFA0A217A48B1
:10138000FFF756FA002509E07448415D754800F002
:10139000B4FA012000F0D8FA681CC5B20E2DF3DBB8
:1013A0000A2000F0D1FA0BE04FF081516E48FFF7B0
:1013B0008FF828B14FF081516B48FEF7ADFF00E088
:1013C000F2E700BF664800784F2821D16448407892
:1013D0004F281DD162488078D0B96148C078012873
:1013E00016D15F48007998B95D48407980B95C486A
:1013F000807968B95A48C07950B95948007A51285B
:1014000006D15748407AAA2802D1052057490870CA
:1014100041F20310ADF8000046F24000ADF80200C2
:10142000ADF804400F20ADF806000020ADF808002C
:10143000ADF80A0044F64F70ADF80C00062168467E
:10144000FEF748FFADF80A00BDF800000012484959
:101450000870BDF800004870BDF802008870BDF843
:1014600002000012C870BDF804000871BDF8040045
:1014700000124871BDF806008871BDF80600001220
:10148000C871BDF808000872BDF808000012487263
:10149000BDF80A008872BDF80A000012C872BDF8D3
:1014A0000C000873BDF80C00001248732C48002192
:1014B000016041600181012240212A4800F07AF94F
:1014C0000A212948FFF7B4F9002509E02848415DC1
:1014D000244800F012FA012000F036FA681CC5B268
:1014E0000E2DF3DB0A2000F02FFA0BE04FF08151B4
:1014F0001D48FEF7EDFF28B14FF081511A48FEF765
:101500000BFF00E0F2E700BF154800784F2821D11B
:10151000134840784F281DD111488078D0B9104821
:10152000C078012816D10E48007998B90C48407946
:1015300080B90B48807968B90948C07950B9084822
:10154000007A512806D10648407AAA2802D10620FE
:1015500006490870BDE8FF81010000205800002006
:101560009000002000100140406402400000002074
:10157000660000207FB50446002000900190029094
:10158000039026124FF6FF7000EA0424A01984B2DB
:1015900041F20310ADF8000046F24000ADF8020041
:1015A000ADF8044040F20F10ADF806000020ADF891
:1015B0000800ADF80A0044F64F70ADF80C000621A3
:1015C0006846FEF787FEADF80A00BDF8000000127D
:1015D00027490870BDF800004870BDF80200887007
:1015E000BDF802000012C870BDF804000871BDF813
:1015F000040000124871BDF806008871BDF80600AD
:101600000012C871BDF808000872BDF80800001289
:101610004872BDF80A008872BDF80A000012C8724C
:10162000BDF80C000873BDF80C0000124873114897
:101630000021016041600181012240210E4800F03B
:10164000B9F80A210D48FFF7F3F8002509E008482A
:10165000415D094800F051F9012000F075F9681C5E
:10166000C5B20E2DF3DB0A2000F06EF97FBD00003D
:1016700082000020900000200010014040640240E1
:10168000042808D14FF0E021096941F004014FF02E
:10169000E022116107E04FF0E021096921F0040127
:1016A0004FF0E022116170477047000010B51548F7
:1016B000006840F47000134908601348006840F067
:1016C00001001149086000200F49083108600E48E8
:1016D00000680E4908400C4908600D48091D086063
:1016E000081F006820F48020091F086000200649B8
:1016F0000C310860FFF794F94FF000600149803920
:10170000086010BD88ED00E000380240FFFFF6FEE3
:101710001030002410B540F225511D4800F053F858
:1017200010B31B4800F0E4F8C4B21A48008800F473
:101730000040C8B91748008800F4804060B1AA2C66
:1017400003D000201349088020E01248008840F4AC
:1017500000401049088019E0512C06D10D4800883E
:1017600040F480400B49088010E00A480088C0F32C
:101770000D0009490C5407480088401C05490880A1
:1017800008460088C72801DD0020088010BD000041
:10179000001001400C000020C200002021B182890D
:1017A00042F40052828104E082894DF6FF731A40B0
:1017B000828170471AB1838A0B43838202E0838A55
:1017C0008B438382704770B50246002400230025B6
:1017D000002040F66A16B14200D100BFC1F34215A5
:1017E00001F01F03012606FA03F3012D02D19689A9
:1017F000334006E0022D02D1168A334001E0968A7A
:1018000033400C12012606FA04F41688344013B152
:101810000CB1012000E0002070BD00002DE9FF4761
:1018200005460E460024A14600BFA046B08900B17F
:1018300000BF2C8A24F44054F08804432C82AC89E5
:1018400041F20C608443B0883189084371890843B0
:101850000443AC81AC8A24F44074B0890443AC8264
:101860006846FFF767F82048854202D01F48854246
:1018700002D1DDF80C9001E0DDF80890A88900F4B1
:10188000004040B109EBC90000EB09103168490084
:10189000B0FBF1F707E009EBC90000EB0910316874
:1018A0008900B0FBF1F76420B7FBF0F004012009D8
:1018B000642101FB1078A88900F4004040B1322077
:1018C00000EBC800B0FBF1F000F00700044308E0B3
:1018D000322000EB08106421B0FBF1F000F00F00A3
:1018E00004432C81BDE8FF87001001400014014033
:1018F00001468888C0F308007047C1F3080282805F
:10190000704700BFFEE700BF7047000010B50446F7
:101910006FF00400FFF7B4FEE11704EB5171C1F35F
:10192000C701074A11701046007800EB4001C1EB77
:10193000C0104FF6FF7101EAC0000249088010BDD7
:10194000040000200600002070B504464FF4077024
:1019500094FBF0F0C6B24FF4077094FBF0F100FB7B
:10196000114085B205E04FF4077000F009F8701ED1
:10197000C6B2002EF7D115B1284600F001F870BDAF
:101980000146114A12884A434FF0E0235A6100226F
:101990009A611A46126942F001021A6100BF4FF0C3
:1019A000E022106900F001021AB100F48032002A2E
:1019B000F5D04FF0E022126922F001024FF0E0234F
:1019C0001A6100229A617047060000201CB500BF12
:1019D00000BF2FA0006801904FF4A060FEF77EFFCB
:1019E0000A2000902B4883B241F2040251062A4893
:1019F000FEF7DEFEA820FFF789FF4FF4E13000F08C
:101A00004FF8FEF7B5FEFEF72DFE0120FFF77EF83A
:101A10000220FFF77BF80320FFF778F80420FFF798
:101A200075F833E00020FEF73FFE1C4908700846B9
:101A3000007804280BD10120FFF7FEFB0220FFF7FE
:101A4000FBFB0320FFF7F8FB0420FFF7F5FB13482F
:101A5000007801280AD1FFF78DFD0220FFF78AFDEB
:101A60000320FFF787FD0420FFF784FD0B48007873
:101A700002280BD10120FFF7DFFB0220FFF7DCFB80
:101A80000320FFF7D9FB0420FFF7D6FBCAE70000CD
:101A9000111300009000002040640240010000206B
:101AA00010B588B0044601210846FEF723FF012146
:101AB0001020FEF72FFF072209211F48FEF7A1FD86
:101AC00007220A211C48FEF79CFD4FF4C0600690D7
:101AD00002208DF81C008DF81D0000208DF81E00DE
:101AE00001208DF81F0006A91348FEF742FD02945D
:101AF0000020ADF80C00ADF80E00ADF81000ADF808
:101B000014000C20ADF8120002A90C48FFF786FE65
:101B100001210A48FFF742FE25208DF8040003202A
:101B20008DF805008DF8060001208DF8070001A84A
:101B3000FEF798FE08B010BD000002400010014002
:101B40004FF04070E1EE100A704700006C1B000877
:101B50000000002020000000C40100088C1B0008C9
:101B600020000020D0070000E00100080000010074
:101B70000000000000000000000000000000010262
:0C1B80000304010203040607080900002A
:040000050800018965
:00000001FF
